:100000000256b8026d4fe56e600974011273777580
:100010006e0022e4127377756e0122024cc4e5551e
:10002000beb00168f912735d60fb22026b47ca3be8
:100030007d727d637d2712550b7d367d27126d1ee7
:10004000da3b2202732d7e340dd8125e177e340dfa
:10005000d81268ea12736660fb2222026747beb0bc
:100060000a50060a2b197214b8223202006ae552ad
:1000700024ff22026bb6ca3b7eb30cd4f5267ed396
:100080000cd57e340cb67a352e7e3400277e2400c3
:1000900005e41272d26ccc7ea0ff7e7007ac7c1996
:1000a000a311cc7e347fff7407acbc593511c874e2
:1000b00007acbc593511ca0bc0bec00578d9e526be
:1000c00060030200ef126f8cbed00038030200df25
:1000d00074017ab30cd9e47ab30cdb7ab30cdc7e0e
:1000e0003413827e24000574ff1272d20201144c74
:1000f000dd68030201147525007ea0ff7e71257462
:1001000007ac7b19a30c740525e525b405eb740138
:100110007ab30cd875250002014c7e51257407acca
:100120005b2e240c4d0b28303e343e343e343e349e
:100130001b28307e5125ac5b2e240c4f0b28303e03
:10014000343e343e343e341b28300525e526beb10e
:100150002538c7e46c777e61267e2411c8125e7e46
:100160007e71267e60057e2411c8125e7e7ccb6c7b
:10017000ee7525000201927ea1257407a409651180
:10018000cc7407acbe09750c51bc7678030201979c
:100190000525bec12538e0bec12568030201b87e31
:1001a0007007ac7e2e340c4d7e3007ac3c2e141103
:1001b000c87407124acc0bc00be0bee00578b27ed3
:1001c0002411c87e340c707e14002312721a4cdd88
:1001d00068030201e77e240c4d7e340c707e14000f
:1001e0002312721a0204847eb30cdb6003020484bf
:1001f0006cee02047b7525007ea1257407a40965b9
:100200000c747e9007ac9e09740c51bc6778030295
:10021000021b0525e525beb00540dd7ea12574073e
:10022000a409f50c7449340c4f49250c721272a2c2
:100230007d637407acbe49350c4d7ea1257407a4bf
:1002400049250c701272a27d132d167a15217c1f80
:100250002e10277401a5f7be14004028030202d90e
:100260007e3521be34002038030202ae7e7003ac1e
:100270007f09b31300600302029709b31301beb0f4
:100280000038030202890202bf740119b313006d22
:10029000227a25210202ed09b31301beb00a400300
:1002a0000202ed2e341301047a39b00202d17e70bd
:1002b00003ac7f09b31301beb00038030202cc7d4a
:1002c000232e241301147a29b00202ede419b3138a
:1002d000006d337a35210202ed6caa7e7003ac7f8b
:1002e00019a313017e7003ac7f19a313007e35217f
:1002f000be340020280302032e7ea1257407a449e2
:10030000350c707407acbe59350c4d7ea1257407b1
:10031000a449350c727407acbe59350c4f6d337a55
:1003200035217ea0017e7003ac7f19a312ff7ef5fc
:10033000217af5230aef2ee52e7ee9b0b401028082
:10034000030203526dee7402acbf59e512f559e594
:10035000130e7e170d14be152328030203687e04b6
:1003600001007a052c02038b7e35236d227c567c9e
:10037000676c77124a457de37ae52cbee4001040b5
:100380000302038b7ee400107ae52c7402acbf49b3
:1003900045130ebe452138030203a5494512f57adf
:1003a000452c0203ac7e452c594512f559f5130e28
:1003b0007e352cbe34010038030203c37e340100b5
:1003c0007a352c7407acbe49350c4d7ea1257407d7
:1003d000a449250c701272a27d237a25217e352c2a
:1003e000ad327c767c650a247a35217e51257407ee
:1003f000ac5b49320c70acbe49150c4dbd133803d3
:100400000204147d022e040c707d132e15211b088e
:100410001002041e2e240c709e35211b28307407f8
:10042000acbe49350c4f7ea1257407a449250c723a
:100430001272a27d237a25217e352cad327c767c0a
:10044000650a247a35217e51257407ac5b49320c4c
:1004500072acbe49150c4fbd13380302046f7d0208
:100460002e040c727d132e15211b08100204792e08
:10047000240c729e35211b28300be0e526bcbe28db
:10048000030201f56cee7407acbe49450c701e44c6
:100490001e441e441e447a453049450c721e441ebb
:1004a000441e441e447a453209f50c7419f50c516a
:1004b0007cbf540fbeb00540030205bf7cfb0a0f92
:1004c0007d102e152e7e19b0beb00378030205dc18
:1004d000b4010280030204e174ff19b01382020523
:1004e000bf09901382be90ff68030205337401199f
:1004f000b013827e15307407acbe59150c4d7e15b5
:10050000327407acbe59150c4f6cdd7e7007ac7ea3
:100510002e340c4d7e5007ac5d7e3015ac3f2d1255
:100520002e1413197407124acc0bd0bed00378dbfb
:100530000205bfbe90035003020540e419b01382c8
:100540007e2530098013827e9007ac897e7015acc1
:100550007f2d43592413197e25325924131b7eb352
:100560000cdb6003020588e42e341319126c8974c5
:1005700007acbe59350c4d74017e7015ac7f2e341e
:100580001319126c890205aa493413197407acbef9
:1005900059350c4d0a3f094313827e5007ac457e06
:1005a0007015ac7f2d324933131b7407acbe59351f
:1005b0000c4f0a3f2e3413827e39b0047a39b07c56
:1005c0001e2e1027a5e760030205dc7e7003ac7ebb
:1005d0002e3412ff7e240003e41272d20be0bee040
:1005e000056803020486e526beb00038030205f65e
:1005f00074017ab30cddda3b22caf86cff7e24006a
:10060000b77e3411ed7e14002512721a7e240c4d33
:100610007e3411c87e14002312721a7e730cd47ab1
:100620007311eb7e730cd57a7311ec7ea311ebbec4
:10063000a00138037ef0017eb30cd57003e4801076
:100640007eb300df047ab300dfbeb0c8280674149e
:100650007ab300df7eb300dfbeb00650037ef00148
:10066000bea001283f7e3400217e2400237e141189
:10067000ed1269ea7e3400257e2400277e1411c81d
:100680001269ea7e35259e35211272c2be34008081
:10069000180f7e35279e35231272c2be34008008a3
:1006a000037ef001bef00028030207577ef300dd51
:1006b000bef3009450557e730094be7311eb281264
:1006c0007e2400b77e3400717e14002512721a0257
:1006d00007577e7300dcbe700258227e2400b77e6e
:1006e0003400717e14002512721a74017ab300de90
:1006f000e47ab300b47eb300dc0402079374017a99
:10070000b300dee47ab300b4020793bef30094783a
:100710002d7ea30094bea311eb500d74017ab3009b
:10072000dee47ab300b4806bbea311eb280474013d
:100730008001e47ab300dee47ab300b480557e73be
:100740000094be7311eb501a7e2400b77e34007102
:100750007e14002512721ae47ab300de7ab300b474
:1007600080317e7300b4be7002581c7e2400b77eb8
:100770003400717e14002512721a74017ab300deff
:100780007eb300b404800774017ab300dee47ab368
:1007900000b4e47ab300dc7eb300de1468090478a8
:1007a000157e2411c880047e2400717e3400b77e3b
:1007b00014002512721a7e7300947a7300dd7e2471
:1007c00011c87e3400717e14002512721a7e240036
:1007d000b77e340c4d7e14002312721a7e7300da39
:1007e0007a730cd47e7300db7a730cd5daf8220aa4
:1007f0002b19720e2b7eb30eab44017ab30eab22d3
:10080000d29f6d338934ca3b7d6375240c752500f6
:100810007526177527007e3411e27e240028e41225
:1008200072d26c660208ed7402acb609750b907a50
:10083000712309a50b911a177d211b250b157c43ec
:100840001a1a1b151a0a0b057c21be500058026c9f
:10085000557e730dd80a071b041a44bd4008027c5c
:1008600041be300058026c337e730dd90a071b0459
:100870001a42bd4008027c21be512458037a5124fb
:10088000be412508037a4125be312658037a312618
:10089000be212708037a21277cf5804b7ce3804129
:1008a0001aef7ef40018adfe1a0e2d0f0e040e0482
:1008b0000e047c717a71217e1018ac1f7cb12cbea5
:1008c00054077e04000160053e041478fb7cb1f5fa
:1008d000220a072e0411e27e09b045227a09b00be4
:1008e000e0bc2e58bb0bf0bc4f58b10b607e730cb4
:1008f00037bc762803020827be70003803020d4378
:100900007ee126020d3a6cff801f1a3e3e341a2ffc
:100910007e140030ad122d312d360b38300e340ed2
:10092000343e24593211c80bf07e730dd8bc7f18a9
:10093000d97ef124020d2f1a4f7e140018ad141a1f
:100940003e7d512d530e540e540e547cab7aa12192
:100950007e5018ac5f7cb52cbe54077e240001602d
:10096000053e241478fb7cb5f5220a2a09b211e26f
:1009700055227803020d2dbef00358030209fe7eb6
:10098000530dd80a251b26bd4218737df43ef44949
:100990005f11cc492f11c42d257d523e543e243e7b
:1009a000243e242d25495f11ce49ef11c22de57d4e
:1009b0005e3e542d5e9d2549ef11ca495f11c62d3b
:1009c0005e7de53ee43e543e543e543e543e542d3e
:1009d0005e9d25495f11c87d053e043e043e043ef0
:1009e000047d153e143e143e143e143e143e143e47
:1009f000149d103e543e542d512d52020b554cff68
:100a0000785d7d243e24491211c87d013e043e04d8
:100a10003e043e047d513e543e543e543e543e54aa
:100a20003e542d507d013e042d052d01491211ca61
:100a30007d513e543e543e543e549d053e143e145a
:100a40003e149d01491211cc7d513e543e543e54fa
:100a50002d509d51492211ce3e249d52020b55be70
:100a6000f00178697d043e04491011c67d213e24c1
:100a70003e243e243e143e143e143e142d124920c2
:100a800011c87d523e543e543e543e543e243e24b2
:100a90003e243e243e243e243e249d259d21491093
:100aa00011ca3e143e143e143e143e149d214910ba
:100ab00011cc7d513e543e543e542d512d5249107f
:100ac00011ce7d213e242d219d52020b55bef002f8
:100ad0006803020b757d043e04491011c67d213e5a
:100ae000243e243e243e243e242d21495011c47d21
:100af000153e143e143e149d159d12492011c87dcb
:100b0000f23ef43ef43ef43ef47d523e543e543efa
:100b1000543e543e543e543e549d5f3e243e242d4c
:100b2000252d21495011ca7d153e143e143e143e18
:100b3000143e142d159d21495011cc7d153e143eb7
:100b4000543e543e542d512d52491011ce7d213e1c
:100b5000242d219d520e540e540e540e540e540e3c
:100b6000547d233e247e140030ad142d212d261bf0
:100b70002850020d117ea30dd87cba24fdbcbf689d
:100b800003020c113e44492411c47d123e143e243c
:100b90003e243e242d21490411c27d103e142d1007
:100ba0009d21490411c67d103e143e143e143e148e
:100bb0003e142d109d21491411c87df13ef43ef4e0
:100bc0003ef43ef47d013e043e043e043e043e04f9
:100bd0003e043e049d0f3e143e142d102d12490478
:100be00011ca7d203e243e243e243e243e242d2056
:100bf0009d12490411cc7d203e243e243e249d209c
:100c00002d210e240e240e240e240e240e24020d5b
:100c1000007cba24febcbf78761a0f3e044930111e
:100c2000c27d233e242d23491011c47d313e343e24
:100c3000343e342d319d32492011c63e243e243e9f
:100c4000243e243e249d32492011c87d123e143e8c
:100c5000143e143e143e243e243e243e243e243eb4
:100c6000243e249d212d23493011ca7d133e143e7c
:100c7000143e143e343e343e343e342d319d230e1a
:100c8000240e240e240e240e240e241a3e80717e7f
:100c9000b30dd814bcbf78791a5f3e54492511c4ee
:100ca0007d323e343e343e349d32492511c23e24cd
:100cb0009d32492511c67d423e443e443e443e2479
:100cc0003e243e243e242d249d32491511c87d2109
:100cd0003e243e243e243e247d013e043e043e0448
:100ce0003e043e043e042d027d213e242d202d2174
:100cf0002d230e240e240e240e240e240e241a3e20
:100d00003e341a0f7e140030ad102d312d361b38b5
:100d1000201a1e3e141a2f7e340030ad327d232d52
:100d2000212d260b28303e343e341b28300bf0e5b5
:100d300025bcbf48030209370be0e527bcbe4803ca
:100d4000020906da3b22ca3b7cfb7eb30c37f52c4a
:100d5000751000e47ab300b57ab300b66d227e3424
:100d60007fff7e670d916ceee40a1e19b111c86c0d
:100d7000aa7e1002ac1e19a0009619b00097e52caf
:100d8000bcbe282409200b907e3018ac2309100b20
:100d9000910a012d103e142d160b1810bd12480299
:100da0007d21bd1318027d310be0bee00f78b92d17
:100db000320e34e52cbeb002500302119d6cee7e63
:100dc0003006ac3e7d512e546e2d7e4400ff0b2a22
:100dd00020bd2358207d512e546e2f7e4400ff0be2
:100de0002a207a25302e146e317e0400ff0b0a2053
:100df0007a253280070be0bee00740c36cee02119b
:100e00008b7e7002ac7e09b30b90f52209b30b9177
:100e1000f5234cee68080a3e09b311c8700a0a3e71
:100e20000b340a2e197211c8e52c14bcbe780302cb
:100e300011940a5e0b54f52d02117f7e712d740200
:100e4000ac7b09a30b907aa12409b30b91f5250a79
:100e50002ae5220a3b9d321272c27cb7f52ae525ab
:100e60000a2be5230a3b9d321272c27cb7f52b7523
:100e70003d02752f007e51227418ac5be5230a3bbe
:100e80002d233e242d260b28207a25347e11247410
:100e900018ac1be5250a1b7d202d213e242d260b99
:100ea00028207a25367d523e543e543e540e540e30
:100eb000540e540e547a5538be253408147e253409
:100ec0003e243e243e240e240e240e240e247a2595
:100ed00038e52abeb0013837e52bbeb00138307c8a
:100ee000bf5402b402292d033e042d060b08207eb8
:100ef00071227418ac7b2d313e342d360b38302dd9
:100f000032be35381803021113752f01021113e593
:100f10002abeb001380ae52bbeb001380302111316
:100f2000e52abeb0044003021113e52bbeb0044015
:100f3000030211137cbf5401b40102800302111398
:100f40006d337a353a753c00852226852428e524c0
:100f5000beb1225006852426852228852327852593
:100f600029e525beb123500685252785232975400f
:100f700000754100e528beb1267821754001e526bf
:100f80006005e526b40c03754101e526beb00028d6
:100f9000021526e528beb00c50020528e529beb191
:100fa000277821754001e5276005e527b41703750b
:100fb0004101e527beb00028021527e529beb0177c
:100fc0005002052985263e807885273f806ae526e0
:100fd000beb13e6815e528beb13e680ee527beb13c
:100fe0003f6807e529beb13f78247e513e7418acb6
:100ff0005be53f0a1b2d213e242d260b2820be2415
:10100000000008062e253a7a253a053c80287e51b4
:101010003e7418ac5be53f0a1b2d213e242d260ba8
:101020002820be2532080ce53dbeb0002805753de0
:10103000018003753d00053fe529beb13f508f0596
:101040003ee528beb13e50817e51287418ac5be568
:10105000270a4b2d243e242d260b28507e253a9d11
:10106000257e31267418ac3be5290a0b7d512d50a5
:101070003e542d560b58509d252d143e142d160b05
:1010800018109d217e31287418ac3b2d103e142d74
:10109000160b18109d217a253a7e25362e25347a96
:1010a0002538e540b40111e541700d7e253a9e25b5
:1010b000387a253a153c153ce53cbeb0042806e5d7
:1010c0003c24fcf53c7e253abe24000058037a35ca
:1010d0003a7e15381a021a007e35301a261a241262
:1010e0004a2be53c0a1b6d00124a2b7f217e353ac4
:1010f0001a261a247e140028124a3cbf12080ae558
:101100003dbeb0002803752f027eb30c3db4010331
:10111000752f02e52fbeb0002863e52f0a3b2e3461
:1011200000b47e39b0047a39b0e52d0a3b09b31119
:10113000c8700c0a2e095211c8195311c8803e7587
:101140002e008032093311c80a2e09a211c8bca38f
:101150002812e52e0a2b092211c8bc2a781619324a
:1011600011c88010e52e0a2b09b211c8bcb378044f
:1011700019a211c8052ee52cbeb12e38c7052de5e4
:101180002cbeb12d2803020e3b0be0e52cbcbe2883
:1011900003020e017e3411c8123c3cf510da3b22ea
:1011a000ca3b7cf67ce77cdb6c336c446c226c5570
:1011b0007e370d187a353b6caa7e7007ac7f19a379
:1011c0000bd3e419b30bd40a5d3e540b547cab7eb5
:1011d0007002ac7e09b30b90f53609b30b91f5376d
:1011e000bed137280302120e7eb30dd90a0b1b04a1
:1011f0000a3d9d03e5370a3bbd30080302120e7c11
:101200003a0a4de5370a0b9d047c51021259bed1b2
:10121000373803021227e5370a0b0a3d2d300b340d
:101220007c376c550212590afde5370a4b2df47ec6
:10123000b30dd90a0b7d301b34bdf31803021259cc
:10124000bd4308030212590a3d2d30e5370a0b9db4
:10125000307c370a3d9d037c51bed13628030212f3
:10126000837eb30dd80a0b1b040a3d9d03e5360aa5
:101270003bbd3008030212837c4a0a0de5360a3b67
:101280000212cabed136380302129ce5360a0b0a96
:101290003d2d300b347c476c220212ce0a4de536d0
:1012a0000a5b2d457e730dd80a377d031b04bd40b4
:1012b00018030212cebd5008030212ce0a0d2d03f0
:1012c000e5360a3b9d037c410a0d9d307c277e3725
:1012d0000d917cb27e230d0a7e0409a01260127e5d
:1012e0003709a07d036d117e3709a27d207a1d2567
:1012f0007e3709a47d037e3709a67d207a1d297ecd
:101300003709a87d037e3709aa7d207a1d2d7e37f7
:1013100009ac7d037e3709ae7d207a1d310a2de5ab
:10132000360a3b9d327cc70215240a4de5370a5b1d
:101330009d54f53502150dbec000580302150b7ef5
:10134000730dd8bc7c180302150be535beb00058f0
:101350000302150b7e730dd9be7135180302150bf0
:10136000e5351a1b3e141a2c7e340030ad322d3177
:101370002e370d910b38307e530d0a0a259d327a97
:101380003539be340000180302150b7e353bbe35df
:101390003928030213a67e7007ac7f2e340bd47e4f
:1013a00039b0047a39b0e5360a2b1a3c9d321272f4
:1013b000c2be34000108030213d0e5370a2be5351d
:1013c0001a3b9d321272c2be340001180302150b83
:1013d000753800021460bee138780302145ee53807
:1013e0001a3b3e3409730b900a271a3c9d32127245
:1013f000c2be340001080302141ee5381a3b3e3415
:1014000009730b910a27e5351a3b9d321272c2be51
:10141000340001080302141e7538ff02146ce5380d
:101420001a3b3e3409730b900a271a3c9d32127204
:10143000c2be340002080302145ee5381a3b3e3493
:1014400009730b910a27e5351a3b9d321272c2be11
:10145000340002080302145e75380002146c05386b
:101460007e730c37be713808030213d6e53860036b
:101470000214c07e35397d230e249d327a35397ea3
:10148000f5397d3f1a361ae61a1c1a027f17124ade
:101490002b7f017e1d299f107a1d29e5351a1b1a05
:1014a000027f17124a2b7f017e1d319f107a1d315a
:1014b0007e1d259f177a1d257e1d2d9f177a1d2db8
:1014c000e538b4ff02800302150b7ef5397d3f1a23
:1014d000361ae61a1c1a027f17124a2b7f017e1d4c
:1014e000299f107a1d29e5351a1b1a027f17124a07
:1014f0002b7f017e1d319f107a1d317e1d259f1788
:101500007a1d257e1d2d9f177a1d2d05350a2de587
:10151000370a3b2d321a27e5351a3bbd3218030234
:1015200013370bc00a2de5360a3b2d321a271a3c19
:10153000bd32180302132a74067e1d292f11147858
:10154000fb7a1d297e0d257e1d29124a472e340067
:10155000207ed007acdf59360bce74067e1d312fae
:10156000111478fb7a1d317e7d2d7e1d317f07128f
:101570004a472e34002059360bd07eb30d177f1703
:1015800070030215911e341e2450034e608014789f
:10159000f47a1d2dbe18007f38030215a47e1800b2
:1015a0007f7a1d2d7e2d2d7cab7e7007ac7f19a31d
:1015b0000bd37407acbe09a50bd47e7007ac7f19a2
:1015c000a30bd47407acbf09750bd4be700f3803de
:1015d0000215df7ea00f7e7007ac7f19a30bd4da53
:1015e0003b22ca3b7c6bbe6003400674017ab30f9a
:1015f00043a5be01587ea30dd8bca7280d7a710d56
:101600007430ac7b2e3714b4803c7a710dbca77853
:10161000067e34089a802f0a2a7d020b040a17bd21
:101620001078067e3408ca801d7d020b05bd107837
:10163000067e34092e800f2e240003bd126803029b
:10164000196a7e34095e7a37140402196aa5be004d
:10165000467e64000b7a69707cb75470c4540f7c6a
:101660007b4c776804a5bf01157eb30e52b4030707
:1016700074017e7001803674277e700180137eb302
:101680000e52b4030774017e7003802174277e70ac
:10169000031207ef02196aa5be0223a5bf0407744f
:1016a000017e70048007a5bf0509e46c7712005e17
:1016b00002196abe7001500302196a02196aa5beb6
:1016c0000315be700d2809740d7ab30dd802196a7e
:1016d0007a730dd802196aa5be0415be70182809c0
:1016e00074187ab30dd902196a7a730dd902196a7e
:1016f000a5be05077a730dda02196aa5be071e7a20
:10170000730df87cb7543f0a2b3e243e247e370edf
:10171000015e70034d327a370e0102196aa5be08c8
:10172000147eb30de870077a730a7002196a7a732f
:101730000ec302196aa5be091cbe700a50037e7052
:101740000a7eb30de870077a730a7102196a7a7318
:101750000ef602196aa5be0a10a5bf0003e48002b6
:1017600074017ab30de802196aa5be0b147eb30d9d
:10177000e870077a730a7202196a7a730f410219c4
:101780006aa5be0c147eb30de870077a730c3e0296
:10179000196a7a730f4a02196aa5be4c077a730c4c
:1017a000fd02196aa5befb297a71087e370dfd5e20
:1017b00070df7a370dfde50854010a3b3e343e34b4
:1017c0003e343e343e344e370dfd7a370dfd02195e
:1017d0006aa5be4e077a730df702196aa5be4f06b9
:1017e00012000602196abe60504012be6051380de8
:1017f0000a262e270ddc9e240050021954be60528a
:101800004012be6055380d0a262e270dde9e24009c
:1018100052021954be60564012be6062380d0a264c
:101820002e270de09e240056021954be606340121c
:10183000be607a380d0a262e270de29e2400630230
:101840001954be607b50030218e8be609f28030253
:1018500018e87eb30de870480a269e24007bbe245b
:10186000001858200a262e270de29e24007b7e2990
:10187000f07cbf30e00a0a7f2e7400180e748017c7
:101880001ef080130a262e270de09e2400937e2949
:10189000600a762e7400180a2f19720d9302196ac5
:1018a0000a269e24007bbe24001858200a262e27d4
:1018b0000de29e24007b7e29f07cbf30e00a0a7f87
:1018c0002e7400180e7480171ef080130a262e271f
:1018d0000de09e2400937e29600a762e7400180a7b
:1018e0002f19720d1a02196abe60a04011be60acb9
:1018f000380c0a262e270e199e2400a08056be60a2
:10190000ad4011be60b9380c0a262e270e1b9e244e
:1019100000ad8040be60ba4011be60d1380c0a26ce
:101920002e270e1d9e2400ba802abe60d24011be12
:1019300060d5380c0a262e270e1f9e2400d2801454
:10194000be60d64014be60ed380f0a262e270e2149
:101950009e2400d67a29708011a5bef8067a730fee
:10196000958007a5befe037a710cda3b22ca797511
:1019700026177eb30c37f5217003021c0f7e34113d
:10198000c87e24012be41272d27e3412f37e24002e
:1019900002e41272d26caa021a247e7002ac7a0996
:1019a000330b9009230b911a031b058069be1000ad
:1019b0004862be100d585d7c010e000e000e007acc
:1019c00001257cb154077e74000160053e741478d3
:1019d000fb7cef0a402e4412f37e49b04cbe7a499c
:1019e000b01a321b357cf7801fbef0004818e52680
:1019f000bcbf081274011a217e340017ad321a4f91
:101a00002d4319b411c80bf01a222e2400031a3fdb
:101a1000bd3248d50b101a232e2400031a31bd32d3
:101a2000488b0ba0e521bcba280302199a6c117ce3
:101a3000010e000e000e007a01257cb154077e4491
:101a4000000160053e441478fb7ce90a3009b312ba
:101a5000f35cbe7803021aeb6d337a3522752400ed
:101a60001a217e340030ad327d432e470d916c003b
:101a700080261ae17ef40017adfe0a302d3f09b32f
:101a800011c870127e7002ac702d340b38302e35b8
:101a9000227a352205240b00e526bcb038d4e52493
:101aa0006049e5241a2b7e35221249f97a35226cd9
:101ab000ff80321a217e340017ad321aff7de32dec
:101ac000ef09be11c8b4011b1a217e340018ad32d3
:101ad0007d232d2f3e242e270d910b28309e35225d
:101ae0001b28300bf0e526bcbf18c80b10a5b90d9c
:101af000028003021a2f6caa021c067e1002ac1a86
:101b000009300b9009200b917cbac423541ff52592
:101b10007cba54077e44000160053e441478fb7c87
:101b2000e9a5bb002c1ae37ef40018adfe1a322d95
:101b30003f3e342e370d910b382049330030bd32f3
:101b40001803021bcb1a330b347cb719b00b9080ef
:101b50007aa5bb0c2c1a237e340018ad321a222d24
:101b6000233e242e270d910b28304902ffd0bd03c0
:101b700008591a331b347e1002ac1a19700b90806e
:101b80004a1ae37ef40018adfe1a322d3f3e342e81
:101b9000370d91494300304903ffd0bd0408160baf
:101ba0003820bd0208251a231b247e1002ac1a1906
:101bb000500b9080160b3800bd40080f1a330b34c1
:101bc0007c377e1002ac1a19300b907e7002ac7a12
:101bd00009330b901a237e340018ad321a022d03fc
:101be0003e042e070d910b0800be04003258157cf0
:101bf0007e6e70ffe5250a4b2e440bcc7e49b05c0f
:101c0000b77a49b00ba0e521bcba2803021afbda67
:101c10007922cad8ca796caa7e340f4b7e440ef75b
:101c2000e47ab314d17eb30c4a54fe7ab30c4a7ee4
:101c3000b30b8dbeb000284f7e530c38be50002829
:101c4000466cff803c7e3002ac3f09d10bae09e10f
:101c50000baf7e3002ac3e2d130b18006d119e179a
:101c60000d03bd0158197e3002ac3d2d1349010012
:101c7000306d119e170d01bd0158040517800b0b27
:101c8000f0bc5f38c08003751700e517beb0034095
:101c9000177eb30c4a44017ab30c4a7517007eb321
:101ca00014d144017ab314d17eb30c4a54fd7ab3f3
:101cb0000c4a7eb30b8c70597e530c37be500028f3
:101cc000506cff80487e3002ac3f09d10b9009e197
:101cd0000b917e3002ac3d2d14491100306d009ef9
:101ce000070c3fbd10480e7e3002ac3e2d140b1881
:101cf00010bd1058167eb30c4a44027ab30c4a7ecb
:101d0000b314d144027ab314d180060bf0bc5f380f
:101d1000b47eb30c49b401028003021db57eb30b3f
:101d20008c706d6cff80617e5002ac5f7d122d1453
:101d30000b1810be170c3f084d2d230b2820be2773
:101d40000c3f5842bef11868067af118751900beaa
:101d5000f11878020519e519beb00a283375190a79
:101d6000e55170167eb30c4a44047ab30c4a7eb334
:101d700014d144047ab314d180167eb30c4a54fbb8
:101d80007ab30c4a800a0bf07eb30dd9bcbf3897ea
:101d90006caa6cff80177e7002ac7f2d340b38303c
:101da000be370c3f08057ea001800a0bf07eb30d04
:101db000d9bcbf38e14caa781a7eb30c4a54fb7ade
:101dc000b30c4a7518ff7519007eb314d154fb7a11
:101dd000b314d17eb30c4a54f77ab30c4a7e730c19
:101de0003a0a277e730c390a372d32be370c432846
:101df000147eb30c4a44087ab30c4a7eb314d1441f
:101e0000087ab314d17eb30c4a44107ab30c4a6cee
:101e1000ff80497e5002ac5f09d20b9009e20b9122
:101e20007e7018ac7d0a1e2d313e342e370d910b7d
:101e3000383049220dba9d327a35211272c2be372e
:101e40000c4128167eb30c4a54ef7ab30c4a7eb389
:101e500014d144107ab314d1800a0bf07e730c377e
:101e6000bc7f38af7e340dba7e24001ee41272d2dd
:101e70006cff80257e5002ac5f09d20b9009e20b0b
:101e8000917e7018ac7d0a1e2d313e342e370d9197
:101e90000b383059320dba0bf07e730c37bc7f38db
:101ea000d3da79dad822ca3b6d337a352175250029
:101eb0007526007e230c377a21237e370d917a37e1
:101ec00011c87e3002ac237e240b907e3411ca12de
:101ed000721ae523beb00538030220ab7524006cee
:101ee000ff021fbf7e3403ff7a35277526ff6cee95
:101ef000807e7e7002ac7e09b311cabeb0ff686ef0
:101f00007cbec423541f7cab7aa12b7cbe54077ebd
:101f100024000160053e241478fb7cb5f52c0a2ac8
:101f200009b20bcc552c6846097311cb0a277402f1
:101f3000acbf097500e10a379d321272c27d63742d
:101f400002acbe097511ca0a277402acbf0975003c
:101f5000e00a379d321272c22d367a35297e352736
:101f6000be352928097e35297a35277ae1260be006
:101f7000e523bcbe2803021ef2e526beb0ff683d85
:101f80007e71267402ac7b093311ca7e5018ac53a3
:101f900009a311cb0a0a2d203e242e2711c80b2895
:101fa00020be2400324816e5241a2b3e2419321193
:101fb000e819a211e974ff19b311ca05240bf0e561
:101fc00011bcbf2803021ee47ef1240220916d3370
:101fd0007a35217ea0ff6cee0220637cbec42354c0
:101fe0001f7c7b7a712b7cbe54077e440001600508
:101ff0003e441478fb7cb9f52c0a3709b30bcc5559
:102000002c685e7e9002ac9e094411cabe40ff68f7
:10201000507e5018ac4509b411cb0a3b2d233e2409
:102020002e2711c80b2830be34000058056d331b15
:1020300028307e5002ac5e096211ca7e3018ac3680
:10204000097211cb0a072d103e142e1711c80b1858
:1020500040be4521080b7a61257a71267a45217c9c
:10206000ae0be0e523bcbe2803021fdbbea0ff6869
:102070001e7e71257e9002ac9f197411e8e5261929
:10208000b411e97e70ff7e5002ac5a197211ca0b6e
:10209000f0bef0055003021fce7e2411e87e3411fd
:1020a000ca7e14001e12721a7523057e3400e07e6b
:1020b00024000a74ff1272d2e523beb00028557eb8
:1020c00031237402ac3b7e2411ca7e340b90127211
:1020d0001a7e31237402ac3b7e2411ca7e3400e0a8
:1020e00012721a6cff80277cbf54077e3400016097
:1020f000053e341478fb7c677cbfc423541f0a2b35
:102100002e240bcc7e29704c767a29700bf0e523b7
:10211000bcbf38d3852311e5237ab30c37da3b22d1
:10212000ca3b7522007523007524007525007e3496
:102130000cb67a35267ea30cdd4caa780f7eb30c44
:10214000d970097eb30cda700302234f4caa7811c0
:102150007eb30cd9601680097e7300ffbe700f3805
:10216000067eb3145460f1e47ab314542000067e62
:102170007413b980047e7413dd7d377e24002474cb
:10218000ff1272d274aa7a79b019b700017e730c6b
:10219000d6197700036caa6cdd0222cc7e9007acc6
:1021a0009d09740c977c675e600f0a262e25267e9b
:1021b00029c07cb754f0beb0002812b4b00280032e
:1021c0000222ca7c76bec00168030222cabec003d6
:1021d00078030222ca7e5006ac5a7cb5f521492408
:1021e0000c937a252849240c957a252abec00178bb
:1021f000286c667e5007ac5609b21459540fbcb710
:102200007810491214557a1528492214577a252a2c
:1022100080070b60be600540da7e25280a145e1434
:10222000000fe5210a4b7d042d07193000057cb510
:102230007d242d2719b200067e252a0a145e14007b
:102240000f7cb37d142d1719b100077cb57d142dbb
:102250001719b10008e5247d142d1719b10009e5ff
:10226000257d142d1719b1000a7e3007ac3d0911e8
:102270000c977cb1c454f07c1b7d142d172e1400d8
:10228000077e19b02cb17a19b07e3007ac3d09b188
:102290000c97beb0ff6823bec0016802052205236b
:1022a0007cbc030354c07c1b7d142d172e14000529
:1022b0007e19b02cb17a19b0800e2d472e4400053e
:1022c0007e49b024c07a49b00ba00bd07eb30cfd80
:1022d000bcbd280302219ce52219b70004e523befa
:1022e000b000283d742419b70002e419b700236c2c
:1022f000dd0a3d2d377e39607d272e2400237e297f
:10230000706c767a29700bd0bed02378e4b2007e50
:10231000b30e7bb401097eb30cdab40117801080d0
:102320000e7eb30cdab4010c7eb30e7eb4240574b9
:10233000011273777eb30cd960067e3526126cbb12
:10234000e47ab30cdd7ab30cd97ab30cda8004e406
:102350001273777e240c937e3414557e140023125e
:10236000721ae523700d7e3414557e24002374ff09
:102370001272d2da3b22ca3b6c33752200752300fd
:102380007524006c440224a37402acb409750b904c
:1023900009a50b91be700b285fbea00b285abea0ea
:1023a0000e50557e9030ac977e1002ac1a7df02d09
:1023b000f42ef70d910bf840be4400c8580d7def88
:1023c0001be50be8e0bee4000a4827be4400c858fd
:1023d0000e49efffd07ef40003adfebdf44813befe
:1023e0004400c858132e070d8d0b0800be04ffd8fb
:1023f00058067e30017a4124bea017781b7e100259
:10240000ac1a2e070d8d0b0800be0401f45809e428
:102410007ab30d897ab30d8aa5bf0031bea00b78bf
:102420002c7e9030ac977e1002ac1a2d042e070d36
:10243000910b0840be440064581349000030be04ac
:1024400000005809e47ab30d897ab30d8abea01052
:10245000680abea0136805bea016784575250075ec
:102460002100801f7e91217430ac9b7e1002ac1a3b
:102470002d042e070d910b0800be040096080205de
:102480002505217e230dd8be212138d80a421b44c0
:10249000e5250a0bbd044809e47ab30d897ab30d2a
:1024a0008a0b407e230c37bc2428030223886c113e
:1024b000803f7e9002ac9109040b9009940b91be71
:1024c00000062823be900b501e7ed030acd07ef08c
:1024d00002acf97df72df62ef70d910bf8f0bef456
:1024e00000960803752201be900b28037523010b8b
:1024f00010bc2138bde522b40105be30016809e5f4
:1025000023b40156a5bb01527e9030ac977e1002d9
:10251000ac1a2d042e070d910b08407e070d0b2ed3
:10252000040028bd405047e524c423541f7c5be5cc
:102530002454077e44000160053e441478fb7c6906
:102540000a467e0400ff9d047cb10a052e040bccd4
:102550007e09205c2b7a09208014a5bb0110e5229e
:10256000beb0016809e47ab30d897ab30d8a7eb3ef
:102570000c37beb00228526c4480467402acb409d9
:10258000750b9009a50b91a5bf0c34bea00c782f3c
:102590007cb4c423541f7c5b7cb454077e4400018c
:1025a00060053e441478fb7c690a067e1400ff9d9a
:1025b000100a452e440bcc7e49b05cb37a49b00b6f
:1025c000407eb30c37bcb438b2da3b227c7bbe70a1
:1025d000104012be704b380d0a372e3714049e344b
:1025e0000010022807a5bf0003e50b22a5bf0103c9
:1025f000e50d22a5bf02057eb30cdf22be700340ad
:1026000012be7005380d0a372e340dd89e340003e3
:10261000022807a5bf0603740122a5bf07057eb3e4
:102620000df822a5bf08107eb30de870057eb30a31
:1026300070227eb30ec322a5bf09107eb30de870d1
:10264000057eb30a71227eb30ef622a5bf0a057e6f
:10265000b30de822a5bf0b107eb30de870057eb365
:102660000a72227eb30f4122a5bf0c107eb30de883
:1026700070057eb30c3e227eb30f4a22a5bf4c05e7
:102680007eb30cfd22a5bffb03e50822a5bf4e05c6
:102690007eb30df722be70504012be7051380d0a45
:1026a000372e370ddc9e340050022807be70524092
:1026b00012be7055380d0a372e370dde9e3400528b
:1026c000022807be70564012be7062380d0a372ebf
:1026d000370de09e340056022807be70634012bedc
:1026e000707a380d0a372e370de29e3400630228c7
:1026f00007be707b500302279bbe709f28030227f2
:102700009b7eb30de8704a0a279e24007bbe2400fe
:102710001858220a372e370de29e34007b7e39a0ee
:102720007cba30e00c0a5a2e5400180e547cab8050
:10273000191ea080150a372e370de09e3400937eb7
:1027400039700a572e5400187cab0a3a09b30d931e
:10275000220a279e24007bbe24001858220a372e06
:10276000370de29e34007b7e39a07cba30e00c0a43
:102770005a2e5400180e547cab80191ea080150ae6
:10278000372e370de09e3400937e39700a572e5451
:1027900000187cab0a3a09b30d1a22be70a0401192
:1027a000be70ac380c0a372e370e199e3400a0804c
:1027b00056be70ad4011be70b9380c0a372e370eb8
:1027c0001b9e3400ad8040be70ba4011be70d1383f
:1027d0000c0a372e370e1d9e3400ba802abe70d2e6
:1027e0004011be70d5380c0a372e370e1f9e3400ac
:1027f000d28014be70d64013be70ed380e0a372e4c
:10280000370e219e3400d67e39b022a5bff8057e52
:10281000b30f9522a5bffe03e50c2274ff22ca3b2d
:102820007e640cb66cee7ea0ff7e7007ac7e19a3b2
:102830000c517c1e2e1022e4a5f70be0bee00578bb
:10284000e57eb30cd4702a7eb30cd570030229e464
:102850007d362e34000a7e24000a74ff1272d27d67
:10286000362e3400147e24000a74ff1272d202291c
:10287000e47eb30cd570227eb30cd4b4011b7e373a
:102880000c4d5936000a7e370c4f5936001475220c
:1028900001e47ab30c510229e46cee7e34ffff7e32
:1028a0005002ac5e5932098c593209787cbe7c6e7c
:1028b00020e00f1e607e7002ac672d364933000a9f
:1028c000800d1e607e7002ac672d364933001459ae
:1028d0003209780be0bee00a78c16cee80257cbe40
:1028e0007cae20e00b1ea07407a449350c4d800976
:1028f0001ea07407a449350c4f7402acbe593509ab
:102900008c0be07e730cd40a273e240a3ebd324075
:10291000cd7e3409787e24098c74051267917d136d
:102920006cee7403acbe7d3160051e341478fb5e22
:102930003400070a571b547cab7eb30cd4bcba28b6
:102940006d7e1002ac1e2d064900000abe04ffff7a
:1029500078216cff7e1002ac1f2d064900000abed4
:1029600004ffff78057af121800c0bf0bef00540e2
:10297000e380037ae1217e71217e1007ac1a197081
:102980000c517e11212e10227401a5f77e5007ac48
:102990005a49020c4d7e71217402ac7b7d432d4659
:1029a0005904000a49020c4f2d36590300140be05c
:1029b000bee00568030229226cee7c1e2e1022a5c3
:1029c000e7beb00168177e34ffff7e5002ac5e7d2b
:1029d000122d165931000a2d26593200140be0be73
:1029e000e00578d67ef30cd46cee7c1e2e1022a56a
:1029f000e7b401290a3e2d3609b30005b401067477
:102a00000319b300050a3e2d3609a30005bea00335
:102a10007803e4802b4caa782a740280230a3e2d86
:102a20003609b30005beb0026802701274017a392b
:102a3000b07caf0bf07407a419e50c51800574034a
:102a40007a39b00a2e2d267e2970197200050be006
:102a5000bee0054095da3b22ca3b7e3422c47a357b
:102a6000257e3412117e240018e41272d2752401de
:102a70007e730dfa7a7311c8e47ab30dfa752200e9
:102a80006cee80120a3e2e370e1b7e39b0beb1228c
:102a90004002f5220be07e730dd8bc7e38e6e522bd
:102aa000beb01f500ee5220a4b7e54001f9d54f508
:102ab0002280037522008522217e340dd8123279be
:102ac0007e340dd8126f43022c566d337a370db811
:102ad0007e340dac7a370a731273ba126dd7127343
:102ae0005d60fba9b7ea7e370d917e270d8f7e14be
:102af0001800126c246cee80786cff806a4cee78c3
:102b000011e40a3f19b311f96d337402acbf5935a2
:102b100011c9bef01778137e3400017cbe60053efb
:102b2000341478fb5e340842683b7e5030ac5e7ee5
:102b30007002ac7f2d322e370d910b38100e140e13
:102b4000140e140e140e147e5002ac5f2e2411c904
:102b50000b28302d311b28300a3f2e3411f97e39d5
:102b6000b0047a39b00bf07e730dd9bc7f388e0b70
:102b7000e07e730dd8bc7e38807523006cee022c8d
:102b8000340a3e09a311f94caa780f7e4422c47e70
:102b90007002ac7e594311c980257e5002ac5e495b
:102ba0001211c90a0a8d10591211c92e2411c90b0c
:102bb00028303e343e343e343e343e341b28307e92
:102bc0003422c47a35257e6401f47e7002ac7e49dd
:102bd0002311c97e15259d16bd2150230a1e2e14d2
:102be00012117e19b0047a19b00a1e2e170e217e1a
:102bf00019b0beb1225032047a19b08035802a7dd6
:102c0000362e3525bd2328280a3e2e3412117e3952
:102c1000b0047a39b00a3e2e370e217e39b0beb0ec
:102c2000002806147a39b080090523752400800233
:102c300005230be07e730dd9bc7e2803022b817e19
:102c4000340dd81232797e340dd8126f437e730d55
:102c5000d9be7123680f7ea1217cba14f5214caa3c
:102c60006803022aca7e7311c87a730dfa6cff805a
:102c7000120a3f09731211be712278057524008073
:102c80000a0bf07e730dd9bc7f38e6e524da3b22cf
:102c9000000003e003ff03ff002000410042002288
:102ca00003e003be039c03dd004000a300a5004435
:102cb00003c0035c035a03bb006000e500e8006644
:102cc00003a0031a02f7039900800147014b008813
:102cd000038002b802b4037700a0018901ad00aa05
:102ce000036002560251035500c001cb01cf00cb57
:102cf000034002550251035500c001cb01cf00cb68
:102d0000034002550251035500c001cb01cf00cb57
:102d1000034002550251035500c001cb01cf00cb47
:102d2000034002550251035500c001cb01cf00cb37
:102d3000034002550251035500c001cb01cf00cb27
:102d4000034002550251035500c001cb01cf00cb17
:102d5000034002550251035500c001cb01cf00cb07
:102d6000034002550251035500c001cb01cf00cbf7
:102d7000034002550251035500c001cb01cf00cbe7
:102d8000034002550251035500c001cb01cf00cbd7
:102d9000034002550251035500c001cb01cf00cbc7
:102da000034002550251035500c001cb01cf00cbb7
:102db000034002550251035500c001cb01cf00cba7
:102dc000034002550251035500c001cb01cf00cb97
:102dd000034002550251035500c001cb01cf00cb87
:102de000034002550251035500c001cb01cf00cb77
:102df000034002550251035500c001cb01cf00cb67
:102e0000034002550251035500c001cb01cf00cb56
:102e1000034002550251035500c001cb01cf00cb46
:102e2000034002550251035500c001cb01cf00cb36
:102e3000034002550251035500c001cb01cf00aa47
:102e4000036002760293037700a00169016c008899
:102e5000038002d802d5039900800127010900668a
:102e600003a0033a033803bb006000c500c600445a
:102e700003c0037c037b03dd004000830064002269
:102e800003e003de03de03ff002000210021000039
:102e9000034002550251035500c001cb01cf00cbc6
:102ea000034002550251035500c001cb01cf00cbb6
:102eb000ca3b7eb30de9f521e47ab30de97eb30d8b
:102ec000e7f52274037ab30de77e370df57e240013
:102ed00025e41272d27ee0076d337a370db87e3466
:102ee0000dac7a370a731273ba6cdd7e1400017c64
:102ef000be60053e141478fb0a2d2e270df57e29a1
:102f0000704c737a29700bd0bed02578de7e340ddc
:102f1000d8125e177e340dd81268ea12736660fb11
:102f20007e370d8d7e251e1257446cddbed01850a5
:102f30001e0a3d2e370de27e39f07cbf30e00c0ad0
:102f40003f2e3400180e347cf780161ef080120ad3
:102f50003d2e370de00973ffe80a372e3400187c48
:102f6000f77e7002ac7d2e370d8d0b3830be3425c8
:102f70008018217e3400017cbe60053e341478fb4d
:102f80007d136e14ffff0a2f2e270df57e29705c2e
:102f9000737a29700bd0bed02578911be0bee0007b
:102fa0004803022ed87ee00a74027ab30de702309d
:102fb000a76d337a370db87e340dac7a370a7312a9
:102fc00073ba7e730dd80a377e530dd90a652d6307
:102fd0007ccd6cdd02306f7ea30dd9bcad28270af5
:102fe0003d2e370de27e39f07cbf30e00c0a3f2edb
:102ff0003400180e347cf780021ef07e7002ac7d27
:103000002e370d8d80270a2a0a3d9d322e370de07e
:103010007e39b00a3b2e3400187cf77e7002ac7dfe
:103020002e370d8d2e3400307402a49d350b3830b0
:103030007a3523be342ee008184cee68300a2f2e65
:10304000270df57e29b0beb0fe5022047a29b0804b
:103050001cbe34177058140a3f2e370df57e39b058
:10306000beb0002808147a39b080021bc00bd07e95
:10307000730dd80a377e530dd90a252d230a3dbd7d
:10308000325803022fd74ccc68287e340dd8125efc
:10309000177e340dd81268ea12736660fb7e370d16
:1030a0008d7e251e1257447cae1be04caa6803029d
:1030b0002fb1e5217ab30de9e5227ab30de7da3bca
:1030c00022ca3b7ee30cd44cee78276cff6d117462
:1030d00002acbf591513aa7ea0ff7e3007ac3f1982
:1030e000a1138b74020a1f19b113b40bf0bef005c3
:1030f00078db6cff02325c7407acbf09b50c51542d
:103100000ff522beb005400302325ae5220a1b0920
:10311000b10cb6beb00178030232357521007e31a4
:10312000217407ac3b0971138b7a7123be7122683d
:1031300003023227492113897407acbf49350c4f6c
:103140009d321272c27d637ea1217407a4492513aa
:10315000877407acbf49350c4d9d321272c27d0396
:103160002d06e5230a1b09a113b4bea00028187e72
:1031700071237402ac7b590313aa2e1413b47cbac6
:10318000147a19b002325a7ea1237402a44915138d
:10319000aabe1400322809be0400322803023221dc
:1031a0007d412e440032bd405008be14003228023a
:1031b000806fbe0400962863e5220a1b09b10cb695
:1031c000700474038002740119b10cb67ea003e58b
:1031d000220a1b19a10cbb7e71217407ac7b2e3413
:1031e00013877e1411c8124accbee000282d1be0c4
:1031f0007e7007ac7e2e340c4d7e3007ac3f2e1413
:103200000c4d7407124acc7e3411c87e3007ac3e98
:103210002e140c4d7407124acc1bf07ea1237402ad
:10322000a4590513aa80330521e521beb00550033a
:1032300002311e80256d117ea1227402a45915133e
:10324000aa7ea0ff7e31227407ac3b19a1138b7eae
:10325000a002e5220a1b19a113b40bf0bcef28034e
:103260000230f77ae30cd47e240c4d7e3413877e33
:1032700014002312721ada3b22ca797d7312656830
:10328000492700257e341c0a1b3820492700277e49
:10329000341c0c1b3820492700297e341c0e1b3897
:1032a000204927002b7e341c101b38204927002d75
:1032b0007e341c121b38204927002f7e341c141b1f
:1032c000382049270006097200010a377c676c77ad
:1032d0007e29300a134d137e341c181b38100972d6
:1032e00000030a377c676c77095200020a254d23d8
:1032f0007e341c1a1b3820097700010a277e341cf3
:10330000161b38206d227e341c1c1b38206caa0a28
:103310002a4937000a2d327e39b00a2b7e341c1e12
:103320001b38200ba0bea01878e56d227e341c1c33
:103330001b38206caa7e5002ac5a4937004b2d3204
:103340000b38207e341c201b38200ba0bea019781f
:10335000e46d227e341c1c1b38206caa7e7002aceb
:103360007a2e342c907e2400ff0b1a307e241c22ef
:103370001b28300ba0bea0ff78e27e142e8e7e04a8
:1033800000ff0b0a301b28307e2401007e341c1cf9
:103390001b38206caa7e7002ac7a2e342e907e24cc
:1033a00000ff0b1a207e341c221b38200ba0bea06d
:1033b0001040e27d371261fb492700397e341c281a
:1033c0001b38207e2400017e341c2a1b382049270c
:1033d00000317e341c2c1b3820492700337e341cde
:1033e0002e1b3820493700454927000a09b700013c
:1033f0001268a949370047126b7f493700494927ae
:10340000000a09b70001126076492700357e341c96
:10341000521b38204927003d7e341c541b3820495c
:103420002700377e341c561b3820da7922ca3b6dc0
:10343000337a35237eb30cd470030235047eb30c8b
:10344000d560030235047eb30b90f5217e730b919a
:103450007a71226d667525007526000a377d7380a6
:103460003a7e51217418ac5b2d273e242e270d91f6
:103470000b2810be14003c08280525e521beb0002d
:1034800028084912ffd02d610526e521beb00c5059
:1034900008492200302d6205261b74be74000058b6
:1034a000c07d7380387e71217418ac7b2d373e341b
:1034b0002e370d910b3820be24003c082c0525e545
:1034c00021beb00028084923ffd02d620526e52142
:1034d000beb00c5008493300302d6305267d370bf4
:1034e000347d73be34001848bce525beb0035002dd
:1034f00080127d361272c2e5260a2b1249f9be34bb
:10350000000f0807756b00e40235d06d33e521be6e
:10351000b00028197e51217418ac5be5220a1b2dde
:10352000213e242e270d914922ffd02d32e521bec8
:10353000b00c50197e51217418ac5be5220a1b2d8a
:10354000213e242e270d91492200302d327ea008e5
:10355000802d7e5002ac5a7d122e1472b27a3182c6
:103560007a2183e4931a1bbd1308142e2472b37ab4
:1035700051827a4183e4931a2b2e25237a25237cca
:103580005a1ba0a5bd00cb7e71217418ac7be5222f
:103590000a2b2d323e342e370d910b38301272c269
:1035a000be3403e8080a7e35232e3400287a3523fa
:1035b0007e3523be3400fa28077e3400fa7a35239c
:1035c000e56b0a3bbe352350057e5523f56be56b55
:1035d000da3b22caf86c996dff7def7e830cd47eb6
:1035e000f30cd57e7314a44c7768067eb314af60d9
:1035f00023be80017819be700468197ee70c937ea3
:10360000f70c957d3e7d2f126ed0beb0016805bed1
:103610008001280ae47ab314a47cb90237727eb31d
:1036200014a41468491478030236ad1478030237e1
:10363000131478030237570bb2680302376bbe804e
:103640000168030237704cff680302377074017a17
:10365000b314a47ae714b07af714b27ae714a77a0d
:10366000f714a97e8311a77a8314af0237094c8817
:1036700078167eb314a6700302376b74027ab31403
:10368000a47e8311a50237307ae714a77af714a92c
:103690007e3714b07e2714b27e33119b0a13126852
:1036a000647cab4caa780302376b023770be800192
:1036b00068030237704cff68030237707ae714ab77
:1036c0007af714ad7ae714a77af714a97eb311a498
:1036d0000a3b7eb311a50a2b9d237eb314a50a3b9a
:1036e000bd32080302376b700302376b7e3714b0ac
:1036f0007e2714b27e33119a0a131268647cab4c95
:10370000aa686874037ab314a47e8311a67a83141a
:10371000a6805d4c88781f7eb314a6604e7eb314dd
:10372000afbeb01e404574047ab314a47e8311a8c2
:103730007a8314a5803a7ae714a77af714a97e371a
:1037400014ab7e2714ad7e83119b0a181268647c2b
:10375000ab4caa681680197eb314a570137e902412
:10376000e47ab314a47ab314af8005e47ab314a452
:103770007cb9daf822ca3b7e730e7ba5bf01157ea9
:10378000b30cd5700f7e630cd4be600028067402a3
:103790007ab314c37e630c3b7a630c3c7ea30cd4d7
:1037a0007aa30cd5e47ab30cd87e770eba4d77683d
:1037b00003023840bea0002846a5bf013abea001c2
:1037c00038067eb314c3702b7e630ec17a6314c5b2
:1037d0007eb30ebc20e0030238cebe6314c52803be
:1037e0000238ce7e2400017a270eba74017ab30e15
:1037f000508067741c8001e47ab314c50238cea5ea
:10380000bf010f7e6314c5be601c5006741c7ab3e2
:1038100014c57eb30ebc20e0030238ce7e630ec119
:10382000be6314c528030238cee47ab314c57e24df
:1038300000017a270eba74017ab30e50741e8047c5
:10384000be7400017847bea0002830a5bf010fbe9e
:10385000a00138067eb314c37004746480296d33ec
:103860007a370ebae47ab30e507ab314c574237a59
:10387000b314c874017ab314c780531273bdb40172
:103880000474648002741e7ab30ebf8041be74005b
:1038900003783b6d667a670db87e740dac7a770a53
:1038a000731273b71264bc125c576d337a370eba59
:1038b000e47ab30e5074017ab314c77a670db87afc
:1038c000770a73759a7fa9d199d29ca9d6df7eb366
:1038d00014c77006125ee312681e7e370ebabe343d
:1038e000000178031253e67e370ebabe3400017829
:1038f000127e2400047a270c457e2400287a270ca7
:103900004780104d33780c7e3400027a370c457aac
:10391000370c47da3b22ca3b7c9b7da3be90012833
:103920001e0a151b150a39bd3158147402acb97d35
:10393000b52dba1bb60bb8301272317db38007befd
:10394000900178156dbb7e7002ac792d3a1b350b5a
:1039500038301272317dc380084c9978386dcc7d37
:10396000bc7402acb97dd52dda0bd8301272317d22
:10397000d37e7002ac792d3a493300021272317d48
:10398000e37402acb97df52dfa493f00041272319f
:103990007df3023a217cb524febcb978467402acb2
:1039a000b97db52dba1bb60bb8301272317db37e1e
:1039b0007002ac792d3a1b350b38301272317dc351
:1039c0007402acb97dd52dda0bd8301272317dd3ab
:1039d0007402acb92da5493a00021272317de36d33
:1039e000ff803e7cb514bcb978377402acb97db5a4
:1039f0002dba1bb60bb8301272317db37e7002ac9b
:103a0000792d3a1b350b38301272317dc37402acfc
:103a1000b97dd52dda0bd8301272317dd36dff7d93
:103a2000ef0a796d667f031b0c7d3c1a261a24125f
:103a30004a2b7f417f031b0d7d3b1a261a24124a15
:103a40002b2f417d3d1a261a240a196d00124a2b8c
:103a50002f410a196d000b0c7d3e1a261a24124aba
:103a60002b2f410a196d000b0d7d3f1a261a2412c7
:103a70004a2b2f147d1c1a021a007d5b1a4a1a4821
:103a80002f207d1d1a021a002f027d5e1a4a1a4845
:103a90002f207d1f1a021a002f0274062f1114788e
:103aa000fb124a472e340020da3b22ca3b75210024
:103ab0007e340ad97e240004e41272d2e47ab30b75
:103ac0008c7ab30b8d7ab30b8e7ab30b8f7eb30dda
:103ad00089b401028003023c397e3411c87e24007f
:103ae0000574ff1272d27e3411cd7e24000574ff5e
:103af0001272d27e370d8d7eb30dd97e270d037ed7
:103b00001411c86c111252037ceb7e370d8d2e34cc
:103b100000307eb30dd87e270d017e1411cd1252d8
:103b2000037cdb6cff6caa80516ccc80477cbfc4eb
:103b300023541f7c6b7a61210a2a097211cd7e50b1
:103b400002ac5f19720a750a1c097111c819720a50
:103b5000767cbf54077e44000160053e441478fb28
:103b60007c790a462e440ad97e49b04cb77a49b0ce
:103b70000bf00bc0bcec38b50ba0bcda38ab7af359
:103b80000b8c7e3411c87e24000574ff1272d27e25
:103b90003411cd7e24000574ff1272d27e370d8d54
:103ba0007eb30dd97e270d057e1411c87e1001123b
:103bb00052037ceb7e370d8d2e3400307eb30dd852
:103bc0007e270d057e1411cd1252037cdb6cff6c39
:103bd000aa80276ccc801d0a3a097311cd7e900211
:103be000ac9f19740aa70a3c09b311c819b40aa8f2
:103bf0000bf00bc0bcec38df0ba0bcda38d57af385
:103c00000b8d6caa7e7002ac7a2e370d8d0b38208e
:103c1000be270d0708097eb30b8e047ab30b8e6d99
:103c2000339e370d07bd2358097eb30b8f047ab33b
:103c30000b8f0ba0bea02578cbda3b22ca3b7d734d
:103c40007eb30c37f54c7e370d917a354f754200b7
:103c50007ec0018019e5420a3b2d377e39600a2c6f
:103c60002d277e2970bc7640037ac1420bc0e54cfb
:103c7000bcbc38e1e5420a3b2d377e39b0f54275d0
:103c800044007ec001023d86754b006d337a354d90
:103c90006cdd754500754600754300023d3b7e7145
:103ca000437402ac7b09b30b90f54709b30b91f554
:103cb00048e5430a3b2d377e3970bc7c787b0bd0be
:103cc000e5472545f545e5482546f5467e5147ac8f
:103cd0005de5450a3b9d321272c27cb7f5497e51c3
:103ce00048ac5de5460a3b9d321272c27cb7f54a8c
:103cf0007e514bac5de5490a3bbd3208090a2d12e5
:103d000049f97cb7f54b7e514bac5de54a0a3bbdaa
:103d10003208090a2d1249f97cb7f54b7e714774b8
:103d200018ac7be5480a2b2d323e342e354f0b382c
:103d300030be354d08037a354d0543e54cbeb143e1
:103d40002803023c9ebed000283ae5458cbdf545cf
:103d5000e5468cbdf5467ea1457e71447402ac7b80
:103d600019a30096e54619b300977e254d7e71454f
:103d70007418ac7be5460a1b2d313e342e354f1ba3
:103d8000382005440bc0e542bcbc4003023c88e53a
:103d900044da3b22740d7ab30dd874187ab30dd976
:103da00074047ab30ddae47ab30ddb7e340f487a0b
:103db000370ddc7e340f447a370dde7e340d7c7a8d
:103dc000370de07e340d647a370de274157ab30d49
:103dd000e474177ab30de574047ab30de7e47ab3ab
:103de0000de87ab30de97ab30dea74027ab30debfc
:103df00074457ab30dec74717ab30dede47ab30dba
:103e0000ee7e341fff7a370def6d337a370df17e7a
:103e1000340c3e7a370df37e340d937a370df574fa
:103e20001f7ab30df7740a7ab30df8e47ab30df97b
:103e30007ab30dfa7ab30dfb74027ab30dfc7e34bb
:103e400000f47a370dff7e343fe07a370dfd7e3483
:103e500029287a370e017e3410917a370e0f7e347e
:103e6000003d7a370e117e3400227a370e137e34ed
:103e70004c007a370e037e3403cf7a370e057e343a
:103e8000079a7a370e077e3405847a370e097e3416
:103e900000097a370e0b7e34000f7a370e0d7e3410
:103ea000005d7a370e15e47ab30e1774077ab30ef5
:103eb000187e340eac7a370e197e340d577a370ed1
:103ec0001b7e340ce57a370e1d1241727e340f963c
:103ed0007a370e1f7e340d3f7a370e217e340ec4a2
:103ee0007a370e23027119ca3b6d337a35227a353f
:103ef00024e555beb00168f974017ab30de6126489
:103f0000667e340dd8125e1775e4037e370def7da3
:103f100053f5e575e4045e341f000a367ca77aa1e8
:103f2000e575e405f5e575e4067eb30deec42354ae
:103f3000e04cbaf5e5a9c1e153e11f43e18043ea52
:103f40004075e600c2eea9d0e1e5e630e1fbe5e12f
:103f500020e2fb53e6fd75e60075e600d2ee7e3406
:103f60000dd8126ff67e3411c8125be27521000283
:103f70003f947e71217402ac7b2e370d8b49130068
:103f8000307e5121ac5b2e2411c80b28309d311b93
:103f9000283005217ea30dd8bea12138d59f336dd1
:103fa000337a3522752100023fe37e71217402ac21
:103fb0007b493311c87a35247e370d01be3524483c
:103fc00003023fc7023fd56d339e370d01be352436
:103fd0001803023fd87a35247e35241a261a242f56
:103fe000310521bea12138c20a1a6d007f13124a81
:103ff000987a35227521000240107e51217402ac5e
:104000005b2e2411c80b28309e35221b2830052139
:104010007eb30dd8beb12138e17e3411c87e270da4
:10402000017e1411e26c11125203da3b22ca69caf2
:10403000f87db17df27de39f007f607f406d667a01
:104040006711c87f107da67521006caa804b7e3059
:1040500002ac3a7da12dae0ba8a07cba20e01ebd1b
:10406000ab08047dab800a6d119d1bbd1a08027d53
:10407000a17d1a1a021a002f600521801abdab0813
:10408000047dab800a6d119d1bbd1a08027da17dc8
:104090001a1a021a002f400ba07ef30dd9bcfa3871
:1040a000ade5210a1b6d007f16124a987a3711c8b8
:1040b000e5210a3b6d220a1f6d009f017f14124a01
:1040c000986caa802f7cba7e30027c9a20e00facdc
:1040d000937d142d1e0b18009e0711c8800dac9304
:1040e0007d142d1e0b18007d139d017d142d1f1bab
:1040f00018000ba07eb30dd9bcba38c99f667a6789
:1041000011c86caa80297e7002ac7a7da32dae49bd
:10411000aa0030bdab08047dab800a6d339d3bbd6a
:104120003a08027da37d3a1a261a242f610ba07e3d
:10413000630dd8bc6a38cf0a166d007f16124a98f4
:104140007a3711c86caa801d7e70027c5aac577dec
:10415000322d3e494300309e4711c87d322d3f59d4
:104160004300300ba07eb30dd8bcba38dbdaf8dae6
:104170006922ca797e340060126e577cab7aa16adc
:10418000bea0084003024290bea00450057ee00697
:1041900080037ee0057cbabeb00850487ea003a430
:1041a0009041a4730241bc0241c10241c60241cb0d
:1041b0000241d00241d50241da0241df7ef05e8049
:1041c000267ef05f80217ef061801c7ef063801788
:1041d0007ef06580127ef067800d7ef06980087e3b
:1041e000f06a80037ef0646caa0a3a09b30f960a5b
:1041f0000b7eb30eac0a1b2d017cb17c1a2e102154
:10420000a5f77c9b0a095e040001be040001781c2e
:104210007c79ac7f7e5003ac5f0e240e242d327c63
:10422000ba3eb024250a0b1b0830800dac9f7cba27
:104230003eb024250a0b1b08407cba3eb024250a58
:104240000b0b08f07e04000a7d3f8d308d307c75ad
:10425000be70004014bce728107ec400647ddf8d72
:10426000dc7d0d9d017c618017bce73819be7009ab
:1042700038147ee400648dfe7d2f0b249d217c6527
:104280000a2a19620f960ba0bea00468030241e936
:10429000da7922ca797e740e2b7eb30eab20e0034e
:1042a0000243b054fe7ab30eab09770002be730d21
:1042b0000968167a730d090a373e343e343e343e9f
:1042c000343e343e347a370cff7e7970be730d1362
:1042d000680e7a730d130a373e343e347a370d0b6d
:1042e000097700010a37be370d0d68047a370d0dc6
:1042f0007e270d141e241e241e241e24097700056b
:104300000a37bd32680c3e343e343e343e347a3790
:104310000d1409770008be730ebe68247a730ebeb2
:10432000be700f4005e419b70008097700080a3786
:104330002e3472e27a71827a6183e4937ab30ebd8d
:1043400009770009be730ec068087a730ec07a73cd
:104350000ebf09770007be730ec168047a730ec1e1
:1043600009b7000bbeb1516805f5511271d4097738
:1043700000250a37be370eba68047a370eba0977b5
:104380000006be730ebc68047a730ebc0977002465
:10439000be730ec268047a730ec209b70050beb174
:1043a0006d680df56d7009e47ab30dea7ab30dfb13
:1043b000da7922ca3b7ceb7e730c37be700138037e
:1043c0000244c27cbe120d467eb30c3c60257eb317
:1043d00000b570087eb300b6700280177e730c378c
:1043e000be70012813e512beb0033807e513beb056
:1043f0000528057ef001801e7ef001be730c3c781e
:10440000066cee6cff800f9e7300b5be730c3c789b
:10441000057ee0026cff4cff78057cbe120d46e580
:10442000107ab30c377e31107402ac3b7e240096b8
:104430007e340b9012721a7512647513646cee80e0
:10444000676cdd80597402acbd09750b900a277446
:1044500002acbe09750b900a379d321272c27cb74e
:10446000f5217402acbd09750b910a277402acbe2c
:1044700009750b910a379d321272c27cc7e521bec5
:10448000b000280ae512beb1212803852112bec062
:10449000002809e513bcbc28037ac1130bd07e7336
:1044a0000c37bc7d389f0be07e730c37bc7e389197
:1044b000e512b46403751200e513b4640b751300c0
:1044c0008006751264751364da3b221271a27003c0
:1044d000024552751d14751c016caa802d7cba54be
:1044e000070a3b2e34736f7a71827a6183e4937c7e
:1044f0007b6e70ff7cbac423541f0a4b2e440bcc36
:104500007e49b05cb77a49b00ba07eb30c37bcba19
:1045100038cb6caa80327cba54070a3b2e34736fb6
:104520007a71827a6183e4937c7b6e70ff7cbac47b
:1045300023541f0a4b2e440ad97e49b05cb77a49ee
:10454000b0e47ab30b8c0ba07eb30b8cbcba38c62c
:10455000e422e51cb4010280030245de151de51dc1
:1045600060796caa802d7cba54070a3b2e34736f95
:104570007a71827a6183e4937c7b6e70ff7cbac42b
:1045800023541f0a4b2e440bcc7e49b05cb77a49aa
:10459000b00ba07eb30c37bcba38cb6caa80327c8f
:1045a000ba54070a3b2e34736f7a71827a6183e4be
:1045b000937c7b6e70ff7cbac423541f0a4b2e443d
:1045c0000ad97e49b05cb77a49b0e47ab30b8c0b58
:1045d000a07eb30b8cbcba38c6e422751c00e52162
:1045e00022caf86d337a370db87e340dac7a370aab
:1045f0007374017ab30de97ab30dfa7ab30e5212dd
:1046000067d87eb30e52b4010280030246e56d33d3
:104610007a370db87e3400647a370a73e47ab300cf
:10462000ff1270fb124293126fd36cff1a2f7e346d
:104630000018ad323e342e370d912e3400301b352c
:104640000b38301a2f3e24593211ae0bf0bef00d4c
:1046500078da12701912716d126dab6cff1a3f3e51
:1046600034492311ae1a0f7e140018ad107d313e6f
:10467000342e370d912e3400301b351b38200bf0b3
:10468000bef00d78d81271367eb30d8a70097eb3f4
:104690000d89700302460212196d12342d7ab30c83
:1046a000de1272911244cb7e370d911208061273fe
:1046b0008612515912006e50031205f97eb30ec2d4
:1046c000b40104e4127377126b0e12281e1230c16b
:1046d0001273b11269ab12585812696b1221201271
:1046e000377502460212001e1272ffdaf822ca79ea
:1046f000e46caa0a4a19b40bcc0ba0bea00278f352
:10470000e47ab30c377ab30c387ab30c397ab30c39
:104710003a7eb30d8ab4010280030247f47eb30de2
:10472000d8f5217eb30dd9f5227e370d0d7a3523cc
:104730007e370d0f7a35257e370d117a35277e3479
:10474000000f7a352d7e370d917e2400217e1400d6
:10475000297e0409a01250aae5297ab30c37e52a6c
:104760007ab30c38e52b7ab30c39e52c7ab30c3ad2
:104770006caa806c7e530c37bc5a28447cbac42384
:10478000541f7c7b7cba54077e44000160053e4484
:104790001478fb7c697e3002ac3a497109a07d0730
:1047a0000a007c4119410b907d077c4119410b9116
:1047b0000a472e440bcc7e49b04cb67a49b0801ed5
:1047c0000a150a2a9d213e24497209be7d170a1244
:1047d0007cb319b20bae7d177cb319b20baf0ba033
:1047e0007eb30c380a2b7eb30c370a1b2d120a2a13
:1047f000bd214880da7922caf830907bc290050a40
:10480000e50ab4011ee591f50fe50fb4d30e74016e
:104810007ab314096d337a3714028030e47ab31412
:10482000098029e50bc47cfb5ef007780ee50a25bc
:104830000f24fe7e71911259688011bef004780c2d
:10484000e50a250f24fe7e71911215e2e50bc47c6a
:104850005b5e5007a5bd0009e50f12559bf59180e1
:104860000ba5bd0407e50f1225ccf591e50fb4d3d8
:10487000067eb30e7ef59130917bc2917eb3140912
:10488000b4014c7ea311ac7e7004ac7a2e340006c9
:10489000be37140240347e3714024d3378057aa1b6
:1048a00091801fbe3400077d23500a1b2409b214d7
:1048b000cbf591800d9e2400072e270f9a7e29b0fc
:1048c000f5910b347a371402802b7591ff80260501
:1048d00009e50bc47c5b5e5007a5bd000be509250f
:1048e0000f12559bf591800da5bd0409e509250f13
:1048f0001225ccf591daf822ca3b7ea30cd47e7344
:104900000cd5bea001384dbe700138487eb311a948
:1049100060067eb311ad603c4caa7840a5bf013c57
:104920007e7311ad0a377a3711aa7eb311a9b40389
:10493000237e3711aabe340000281974047ab311fb
:10494000a97e3711847e27118674ff12002e126e05
:10495000020249f6e47ab311a90249f67e670c9384
:104960007e770c957eb311a9701da5bf0053bea024
:1049700001784e7d367d271262567d367d2774ff85
:1049800012002e740180257eb311a9b401247e3754
:1049900011889e37118cbe371192380e7e37118ade
:1049a0009e37118ebe371194281774037ab311a95c
:1049b000800f7eb311a9b403087a6711847a771146
:1049c000867eb311a9602f7d369e370f9c1272c26e
:1049d000be340008180f7d379e370f9e1272c2be7c
:1049e00034000808117d367d2774ff12002e7a6787
:1049f0000f9c7a770f9eda3b22c2d57cb430e70851
:104a0000b2d56e24ffff0b247cb630e712b2d56e10
:104a100034ffff0b348d326e24ffff0b2480028d98
:104a20003230d5066e34ffff0b34227d51ad037d4d
:104a3000027d21ad052d12ad352d21227d02ad3136
:104a4000ad102d21226d0074104d00780b4d227891
:104a5000278d317d126d22227d437d326d222f11f3
:104a60002d445002a50fbf1040049f100b901478e6
:104a7000ed7f016d227d34227d417d138d247d02e9
:104a80002f004004bd0440049d040b141478f17df4
:104a9000237d317d106d0022c2d57cb030e708b295
:104aa000d59f229f207f027cb430e713b2d59f228e
:104ab0009f217f12124a479f229f207f028003126c
:104ac0004a4730d5069f229f217f12226caa4d11a2
:104ad000681a1e54680e0b38201b18200b350b1556
:104ae0001b5478f250067e39407a194022ca3b6c3a
:104af000ff7e730dd96cee7e7030ac7e2e370d913b
:104b00004933002e7402acbe593511c80be0bee02b
:104b10000d78e47eb30d8ab401028003024bd66c9b
:104b2000dd024bc77e7002ac7d09b30b90f5210905
:104b3000b30b91f5226ccc803cbccd68367e700204
:104b4000ac7c09a30b907aa12309b30b91f5240a3d
:104b50002ae5210a3b9d321272c2be3400031813ab
:104b6000e5240a2be5220a3b9d321272c2be3400b4
:104b700003080a0bc07e730c37bc7c38bce522be30
:104b8000b01750186cee6d337e5030ac5e2e270d92
:104b9000915932002e0be0bee00d78ec74037c7d61
:104ba0007c6f1211a06cee7402acbe493511c87e48
:104bb0005030ac5e2e270d915932002e0be0bee036
:104bc0000d78e40bf00bd07e730c37bc7d2803020c
:104bd0004b247af30c37da3b22ca3b7d020b386058
:104be0007df65ef4ff000b08707d175e14ff006e0b
:104bf000d0ea6ef0ea7ced1ee01ee07c9e5e900343
:104c00007c8f1e801e807ca85ea0037c4d5e4003ce
:104c10007c5f5e50035ee03c5e803c4ce44c857cf7
:104c200059ac5a7cf52cfa2ef00d7c5fac5f7cf50c
:104c30007cbf54010a2b3e240b247cbf1eb01eb047
:104c400054010a6b2d62bed00378037ed0027e40f1
:104c5000017cbd60053e401478fb1b407cf45cf891
:104c60007e50069c5d7cb560053ef01478fb7e406e
:104c7000017cb560053e401478fb1b405c4e7cbd5a
:104c800060053e401478fb7cbd60051e801478fbf7
:104c90007cb560051ee01478fb7c5e7cb84cbf0ad6
:104ca000eb3ee43ee40a494d4e4d4f1b08407cb5b7
:104cb0004cb40a0b3e043e040a2a4d204d211b38f9
:104cc00020da3b22ca7bca6bca5bca4bca2bca1bff
:104cd000ca0bc0d0c083c0821272477e351a0b3413
:104ce0007a351a7eb300ff047ab300ff7e351a7e50
:104cf00004000a7d138d104d0078387eb311adbecf
:104d0000b0002805147ab311ad7eb314a6beb0006e
:104d10002805147ab314a67eb314afbeb0002805dc
:104d2000147ab314af7eb314a5beb0002805147a6c
:104d3000b314a5be3403e840216d337a351a7eb32f
:104d400014c5beb0645005047ab314c57eb314c351
:104d5000beb0002805147ab314c37e7314c9be73a1
:104d600014c8280b7eb314c8047ab314c880067420
:104d7000017ab314c77eb314ca6005147ab314ca97
:104d80007e370db80b347a370db87e370a73be37cd
:104d90000db828031273bad082d083d0d0da0bdae0
:104da0001bda2bda4bda5bda6bda7b327d539f113d
:104db000be540000402dbe54003f38277e24003fe3
:104dc0009d257e3401a5ad326d227c767c651a244a
:104dd000be18003548047e1800357e0800359f0156
:104de0007f1022be5405804029be5405be38237d65
:104df000259e24057f7e3401a5ad326d227c767c14
:104e0000651a24be18003548047e1800342e180494
:104e1000cb22be5405be28197d259e24059f7e34d5
:104e200001a5ad326d227c767c651a242e18050012
:104e300022be5402df38087e3402df9d3580067db5
:104e4000359e3402e06d227e1400e0124a3c7c76ee
:104e50007c651a24be5402df380a7e08027f9f0157
:104e60007f1080042e180280be18003558057e1869
:104e7000003522be1804cb08047e1804cb22ca7960
:104e80007cfbe555beb00168f9e555b40268a9d7c9
:104e9000ea7e370d917e270d8f7e141800126c2448
:104ea00012006e5027a9c7ea7ee30dfae47ab30d2b
:104eb000fa7e2405e07d327e141800126c247ae319
:104ec0000dfa7eb30e52b40103126fb074017ab3bf
:104ed0000d8a7e34092e7e2408e47e1409dc126ad1
:104ee0009b7e370d8d7e270d8b7e140a26126a9bc2
:104ef00074017ab30d89126ad512705b7eb30eb954
:104f0000b40131bef001782c7eb30c3c7026124601
:104f1000ee7eb30c3770197e730f420a3709730c9b
:104f2000e07a730df7e47ab30dfb7ab30eb980061d
:104f30006cff80026cff126a261270bd7cbfda79aa
:104f4000227df3bef40000402dbef4003f38277ee2
:104f500044003f9d4f7e540190ad546d447cba7c1b
:104f6000a9be28003240047e2800327e1800329ffd
:104f7000127f21024ff5bef4030040227d4f9e4474
:104f800003007e540168ad546d447cba7ca9be28f0
:104f9000003040047e28002f2e2802a08057bef447
:104fa000019f380e7e54019f9d5f6d447e1400e08a
:104fb000800c7d5f9e5401a06d447e1400e37f123f
:104fc000124a3c7f217cba7ca90a48bef4019f3872
:104fd0000a7e1801679f127f2180042e280168be77
:104fe00028003250067e280032800abe2802a028ff
:104ff000047e2802a07d35227e340e2b7e24008183
:10500000e41272d274077ab30e2d740c7ab30e2e9a
:1050100074057ab30e2f740c7ab30e2b74327ab3f4
:105020000e2c74a07ab30e30741e7ab30e3274094b
:105030007ab30e33741e7ab30e34e47ab30e357a33
:10504000b30e36f552f5517ab30e5074017ab30ea1
:10505000317ab30e4f7ab30e52741d7ab30e517477
:105060005a7ab30e53740e7ab30e5a1273a40a36d8
:105070007a730e541273a47a730e551273a90a36fa
:105080007a730e4c1273a97a730e4de47ab30e5be9
:10509000741f7ab30e7ce47ab30e5d1272f17ab3a8
:1050a0000e5c1271ec7ab30e4e22a9d6cb7cb7f50a
:1050b000b90a56f5ba7e552df5bbf5bc7cb1f5bde8
:1050c0000a50f5c109b2000144a0f5c37e29a0e54c
:1050d000c454e04cbaf5c475c54075c501493200e9
:1050e000027cb7f5c675c5020a56f5c675c50349f3
:1050f0003200046e34ffff0b347d535e5400fff525
:10510000c675c5041a565e5400fff5c675c5054937
:105110000200067cb1f5c675c5060a50f5c643c245
:105120000902512b43c20900000000a937c2f575de
:10513000c20075c50ae5c619b1000275c50be5c602
:1051400019b1000375c50ce5c67a19b075c50de532
:10515000c619b10001a9c6cb22ca3b6cff7eb30db4
:105160008960067eb30d8a70187e340bcc7e2400d5
:1051700002e41272d27e340ad97e240004e4127250
:10518000d26cee806b7402acbe09750b907a712103
:1051900009650b917a61227cbec423541f7cdb7ca1
:1051a000be54077e24000160053e241478fb7cc5b4
:1051b0007e5030ac577e7002ac672d322e370d9189
:1051c0000b3830be370d0b48250a3d09b30bcc5cbc
:1051d000bc681b7e5007ac5e2e240bce7e7007ace5
:1051e0007f2e340c4d7e14000712721a0bf00be068
:1051f0007e730c37bc7e388d7a730c3b7af30cd4fb
:10520000da3b22caf87c0b6caa6dee7dfe6cff02c5
:10521000529e7e9002ac9f7dd42dd30bd8404c1172
:1052200068066e44ffff0b44bd245870bea00550b5
:105230006b4cff781449ed00024c1168066ee4ffd8
:10524000ff0be4bde41855801c7cb014bcbf782073
:105250007dfd1bf50bf8f04c1168066ef4ffff0b9b
:10526000f4bdf418370aca2dc17ac9f00ba0802cfe
:105270007dcd1bc50bc8f049ed00024c11680c6eca
:10528000f4ffff0bf46ee4ffff0be4bdf4180dbd5b
:10529000e418090ada2dd17ad9f00ba00bf0bc0f73
:1052a00028030252127cbadaf822ca3b6d337d73ae
:1052b0007525007e6405e0752300803c7524007e22
:1052c00051237418ac5b3e247e71247402ac7b2d98
:1052d000322d367a3521492300300b38309d321279
:1052e00072c2e524b417021e34bd3728027d73054f
:1052f00024e524b418c90523e5250a2b7e330e299d
:105300000a139d121b14e5230a2bbd2148aebe745f
:10531000004128117e3400737ea3140a7412a4592c
:1053200035141b80267e43140a7e5012ac45493248
:10533000141bbd3750065972141b800fbe34000079
:1053400028092e24141b1b341b2830da3b22e47a54
:10535000b30c4b74017ab30c4c7ea30c4a7cba306c
:10536000e207e47ab30c4c803a7cba30e0187cba9d
:1053700030e41374017ab30c4be47ab30dea7ab3d8
:105380000d8a7ab30d897cba30e1187cba30e41307
:1053900074017ab30c4be47ab30dea7ab30d8a7ace
:1053a000b30d897ea30b8cbea0002805e47ab30c54
:1053b0004c7e730c37be70002805e47ab30c4c7e2b
:1053c000630c3cbe60002805e47ab30c4cbe700050
:1053d00028134caa780f74017ab30c4ce47ab30dfd
:1053e0008a7ab30d8922ca797ee0326cff80566dcd
:1053f000337a370db87e3400647a370a73e47ab3af
:1054000014c87e730ebf7a7314c97ab314c71be035
:10541000683d123ee7beb000280b7eb30ebfbeb0a3
:1054200064680e80077eb30ebfb464057ef0018011
:105430001e7eb30e52b401177eb30eab20e01012e5
:105440005ee312681e7e370ebabe34000168a0be4d
:10545000f00178176d337a370ebae47ab30e5074d0
:10546000237ab314c874017ab314c74cee6805be2e
:10547000f00178031270bdda7922cad8ca797cdbd0
:10548000bed004780c7e340dd8126ff6a9c7ea801e
:1054900027bed005781fa9d7ea7ee30df77ef30d6e
:1054a000fae47ab30dfa126a617ab30df774017aed
:1054b000b30e258003e4804e7eb30f437e340dd8b7
:1054c000b4010a123279e47ab30f43800a12656894
:1054d0007e340dd81261fb7e340dd8126f437eb33b
:1054e0000e52b4030a7e730f952e70ffa994ca1250
:1054f0006dd7bed005780d7ae30df77af30dfae497
:105500007ab30e257401da79dad8227a25237a352e
:1055100021e47e25217d121e141e141e141e141e4d
:10552000141e145e14003f7e2311acbe2078506a16
:105530007e7002ac732e370d8d495300020b38304c
:105540007ca73e243e243e243e24540f0a3b4d3289
:105550007a35217cba540f0a5bc454f07cabe47eec
:1055600035235e600f4d357a35237e3400217e244d
:105570000023124bd97e35217ea311ac7404a459ab
:10558000350fa07e35237ea311ac7404a459350fca
:10559000a27eb311ac047ab311ac227cabbea001e5
:1055a000403bbea03e3836bea004780674017ab3f4
:1055b0001454bea001680abea0026805bea003780c
:1055c000113000067e3413b980047e3413dd7a373f
:1055d00014060a3a2e37140609b30002224caa78a0
:1055e00003e50b22bea080400cbea0df38070a3abc
:1055f00009b30dab22bea0fc78057eb30e5222becd
:10560000a0fd78087e370df37e39b022bea0fe786b
:10561000057eb30df722bea0f978057eb314d12222
:10562000bea0fa7803e56a22e422ca3b7d727d635c
:105630007eb30dfaf524e47ab30dfa7e340dd81258
:1056400032797e340dd8126f43752100126dd71256
:10565000735d60fba9b7ea7d367d277e14180012c2
:105660006c24752200803675230080267e512274ba
:1056700018ac5be5230a3b2d233e247d322d360bef
:1056800038100e140e142d270b28302d311b283006
:1056900005237e730dd9be712338d105227e730d8b
:1056a000d8be712238c10521e521beb004409de578
:1056b000247ab30dfada3b227584017e44041fe498
:1056c0007a49b01b4478f97ef814d1756a007508e0
:1056d00001750900750a00750c00750d00750e0046
:1056e000750f00c200751100751264751364756b37
:1056f00000751a00751b00751c00756c00756d0037
:10570000756e01751e18751f00756f007570007538
:1057100017007518ff7519007e0400ff7e1473c50d
:105720000b0a405d44681a692000020b0e0b44808e
:105730000a7e0bb07a29b00b240b0c1b4478f28044
:10574000df025fad6c33be3018501e0a032e070d0a
:10575000e27e09a07cba30e00c0a5a2e5400180ee2
:10576000547cab80161ea080120a032e070de009a0
:1057700020ffe80a522e5400187cab7e230de7beb2
:105780002003280e7e1002ac1a2d020b08001e0406
:1057900080210a422e44000c7e04000f9d047c21cf
:1057a0007e1002ac1a2d020b08007cb260053e048c
:1057b0001478fb7e447fff9d407e1002ac132d03c6
:1057c0001b08400b30be30255003025746226caafe
:1057d0007e5002ac5a7d322e370d8d0b3810be171d
:1057e0000c4708127d022e070d8b0b08302e370c4c
:1057f000471b083080186d339e370c47bd13580e79
:105800002e270d8b0b28309e370c471b28300ba002
:10581000bea02578bb6caa7e5002ac5a4912092e54
:10582000be170c4708127d022e0408e40b08302e28
:10583000370c471b083080186d339e370c47bd135b
:10584000580e2e2408e40b28309e370c471b2830b6
:105850000ba0bea02540c022ca69caf86c117ed038
:1058600007acd109060c975e000f49f60c95bef403
:10587000051e403c49460c937d3412707c7cfbbe77
:10588000f003400e7e1404ff7407acb159150c955b
:10589000803e7402acbf4945149e7407acb15945b3
:1058a0000c937e1405aa7407acb159150c9580258c
:1058b000bef40500401f7e1404ff7407acb15915f7
:1058c0000c957407acb149150c95be14050a40053a
:1058d0007cb0126ced0b10be10054082daf8da696c
:1058e00022ca3b7e7711889e77118c7e67118a9e33
:1058f00067118e7e3711809e3711841272c27d230c
:105900007d379d321272c2be340020181a7e3711c4
:10591000829e3711861272c27d237d369d321272ad
:10592000c2be3400200803e4803b7e3711829e37dc
:1059300011861272c27d637e3711809e37118412e8
:1059400072c27d73bd76500c7d373e34bd3628045f
:1059500074018011bd67500c7d363e34bd3728047c
:1059600074018001e4da3b22ca7970417e74000b35
:105970007a79707cb75470c4540f7c7ba5bf041532
:105980007eb30e52b4030774017e70038013742734
:105990007e7003804b7eb30e52b4030a74017e7096
:1059a0000112005e804574277e70018033beb0fc1a
:1059b0006803b43c1fa5bfaa057e60058010a5bf83
:1059c00055057e60068007a5bf66207e60077427a8
:1059d0007c76800cbeb080400cbeb0df38072480df
:1059e0001207ef8006b4fe037a710cda79227e3456
:1059f0000c4d7e24002374ff1272d27e340c707e14
:105a000024002374ff1272d27e340c937e24002370
:105a100074ff1272d26caa74030a4a19b40cb61934
:105a2000b40cbb7e44ffff7e7002ac7a59430cc0bd
:105a30007e7002ac7a59430cca0ba0bea00540d7b9
:105a4000e47ab30cd47ab30cd57ab30cd67ab30c0f
:105a5000d87ab30cd97ab30cda7ab30cdb7ab30cfc
:105a6000dc7ab30cdd7ab30cde126f8ce47ab30c03
:105a7000df226c776caa803c7e5018ac5a3e242ef4
:105a8000270d912e2400307d121b160b1840be44aa
:105a90000032081e7e1400017cba60053e141478a2
:105aa000fb5e140842680b1b250b2820bd42080230
:105ab0000b700ba07e630dd8bc6a38bcbe70014071
:105ac000306caa80247e5018ac5a3e242e270d91ab
:105ad0002e2400301b250b28307e3002ac3a593181
